{
  "address": "0xc0D31d398c5ee86C5f8a23FA253ee8a586dA03Ce",
  "abi": [
    {
      "inputs": [
        {
          "internalType": "bytes32",
          "name": "id",
          "type": "bytes32"
        },
        {
          "internalType": "address",
          "name": "source",
          "type": "address"
        }
      ],
      "name": "alreadyExists",
      "type": "error"
    },
    {
      "anonymous": false,
      "inputs": [
        {
          "indexed": true,
          "internalType": "address",
          "name": "container",
          "type": "address"
        },
        {
          "indexed": true,
          "internalType": "bytes32",
          "name": "codeHash",
          "type": "bytes32"
        }
      ],
      "name": "Indexed",
      "type": "event"
    },
    {
      "inputs": [
        {
          "internalType": "bytes32",
          "name": "id",
          "type": "bytes32"
        }
      ],
      "name": "get",
      "outputs": [
        {
          "internalType": "address",
          "name": "",
          "type": "address"
        }
      ],
      "stateMutability": "view",
      "type": "function"
    },
    {
      "inputs": [
        {
          "internalType": "address",
          "name": "container",
          "type": "address"
        }
      ],
      "name": "register",
      "outputs": [],
      "stateMutability": "nonpayable",
      "type": "function"
    }
  ],
  "transactionHash": "0x0fe19626e1dd0491b392d04b38f4849e743cb547fff2c09be8daf678db5c7f1a",
  "args": [],
  "numDeployments": 1,
  "solcInputHash": "cc9470d20fcce6905d2bd940bec91919",
  "bytecode": "0x608060405234801561001057600080fd5b5061023d806100206000396000f3fe608060405234801561001057600080fd5b50600436106100365760003560e01c80634420e4861461003b5780638eaa6ac014610050575b600080fd5b61004e6100493660046101b1565b6100af565b005b61008661005e3660046101ee565b60009081526020819052604090205473ffffffffffffffffffffffffffffffffffffffff1690565b60405173ffffffffffffffffffffffffffffffffffffffff909116815260200160405180910390f35b73ffffffffffffffffffffffffffffffffffffffff8082163f600090815260208190526040902054168015610135576040517f1a88fd5200000000000000000000000000000000000000000000000000000000815273ffffffffffffffffffffffffffffffffffffffff8084163f60048301528216602482015260440160405180910390fd5b73ffffffffffffffffffffffffffffffffffffffff8216803f60009081526020819052604080822080547fffffffffffffffffffffffff0000000000000000000000000000000000000000168417905551823f92917f7eac48f4f5b19bc4a3e15fd574676fc0f406678447f0ca444ed4830d0a4b521f91a35050565b6000602082840312156101c357600080fd5b813573ffffffffffffffffffffffffffffffffffffffff811681146101e757600080fd5b9392505050565b60006020828403121561020057600080fd5b503591905056fea2646970667358221220751ad8c3c74fe055c4d0b5590925ad6f2b9a03b3b3972786607cfe5084c2783e64736f6c63430008140033",
  "devdoc": {
    "author": "Tim Pechersky (@Peersky)",
    "details": "This allows to query contracts by their bytecode instead of addresses.",
    "kind": "dev",
    "methods": {
      "get(bytes32)": {
        "details": "returns zero if the contract is not indexed",
        "params": {
          "id": "The bytecode hash"
        },
        "returns": {
          "_0": "The contract address"
        }
      },
      "register(address)": {
        "details": "`msg.codeHash` will be usedIt will revert if the contract is already indexed",
        "params": {
          "container": "The contract to register"
        }
      }
    },
    "title": "Byte Code Indexer Contract",
    "version": 1
  },
  "userdoc": {
    "kind": "user",
    "methods": {
      "get(bytes32)": {
        "notice": "Returns the contract address by its bytecode hash"
      },
      "register(address)": {
        "notice": "Registers a contract in the index by its bytecode hash"
      }
    },
    "notice": "You can use this contract to index contracts by their bytecode.",
    "version": 1
  },
  "storageLayout": {
    "storage": [
      {
        "astId": 2506,
        "contract": "src/CodeIndex.sol:CodeIndex",
        "label": "index",
        "offset": 0,
        "slot": "0",
        "type": "t_mapping(t_bytes32,t_address)"
      }
    ],
    "types": {
      "t_address": {
        "encoding": "inplace",
        "label": "address",
        "numberOfBytes": "20"
      },
      "t_bytes32": {
        "encoding": "inplace",
        "label": "bytes32",
        "numberOfBytes": "32"
      },
      "t_mapping(t_bytes32,t_address)": {
        "encoding": "mapping",
        "key": "t_bytes32",
        "label": "mapping(bytes32 => address)",
        "numberOfBytes": "32",
        "value": "t_address"
      }
    }
  }
}